:100000000C9434000C943E000C943E000C943E0082
:100010000C943E000C943E000C943E000C943E0068
:100020000C943E000C943E000C943E000C943E0058
:100030000C943E000C943E000C943E000C943E0048
:100040000C943E000C943E000C943E000C943E0038
:100050000C943E000C943E000C943E000C943E0028
:100060000C943E000C943E0011241FBECFEFD8E04C
:10007000DEBFCDBF0E9475000C94C1000C9400003F
:100080009AB121E030E002C0220F331F8A95E2F7D7
:10009000292B2AB908959AB121E030E002C0220F3D
:1000A000331F8A95E2F7292B2AB908959B01AC01E9
:1000B00060E472E48FE090E00E949F0021503109DB
:1000C0003093C5002093C40080E18093C10086E096
:1000D0008093C20008958091C0008823E4F7809146
:1000E000C60008950E946B00089587E090E00E948A
:1000F000400082E090E00E944B0060E875E280E002
:1001000090E00E9456000E947200813341F48BB14E
:1001100080588BB99BB184E089278BB906C08BB11D
:100120008F778BB98BB18B7F8BB92FEF81EE94E0FA
:10013000215080409040E1F700C00000E4CFA1E2F0
:100140001A2EAA1BBB1BFD010DC0AA1FBB1FEE1F51
:10015000FF1FA217B307E407F50720F0A21BB30B9C
:10016000E40BF50B661F771F881F991F1A9469F718
:1001700060957095809590959B01AC01BD01CF0174
:060180000895F894FFCF82
:00000001FF
