:100000000C9434000C943E000C943E000C943E0082
:100010000C943E000C943E000C943E000C943E0068
:100020000C943E000C943E000C943E000C943E0058
:100030000C943E000C943E000C943E000C943E0048
:100040000C943E000C943E000C943E000C943E0038
:100050000C943E000C943E000C943E000C943E0028
:100060000C943E000C943E0011241FBECFEFD8E04C
:10007000DEBFCDBF0E94B6000C941C020C940000A1
:100080008AB180628AB98AB18F7B8AB90895109249
:10009000800082E08093810010928500109284009D
:1000A00008958BB18F7D8BB98AE08A95F1F700C0F6
:1000B0008BB180628BB985E38A95F1F700008BB133
:1000C0008F7D8BB908950F931F934E9BFECF0091A8
:1000D00084001091850020E030E04E99FECF6091C1
:1000E000840070918500CB01A0E0B0E0BC01CD019F
:1000F000601B710B820B930B0E94FF0020E030E02D
:1001000040E05FE30E9465010E94D0002AE330E0F6
:1001100040E050E00E94FA01C9011F910F9108953B
:100120009B01AC0160E472E48FE090E00E94FA0170
:10013000215031093093C5002093C40088E080939A
:10014000C10086E08093C20008959091C00095FFA1
:10015000FCCF8093C6000895C39724F481E30E94E6
:10016000A500089580E30E94A50008950E94400024
:100170000E94470060E875E280E090E00E949000F5
:100180000E9451000E9463000E94AC002FEF81EE9C
:1001900094E0215080409040E1F700C00000F0CF93
:1001A0000E94440188F09F5798F0B92F9927B751C2
:1001B000B0F0E1F0660F771F881F991F1AF0BA950B
:1001C000C9F714C0B13091F00E945E01B1E008950A
:1001D0000C945E01672F782F8827B85F39F0B93FFC
:1001E000CCF3869577956795B395D9F73EF49095BE
:1001F0008095709561957F4F8F4F9F4F0895E8943C
:1002000009C097FB3EF490958095709561957F4F5E
:100210008F4F9F4F9923A9F0F92F96E9BB2793950C
:10022000F695879577956795B795F111F8CFFAF41C
:10023000BB0F11F460FF1BC06F5F7F4F8F4F9F4F4D
:1002400016C0882311F096E911C0772321F09EE8AB
:10025000872F762F05C0662371F096E8862F70E011
:1002600060E02AF09A95660F771F881FDAF7880FEB
:100270009695879597F9089557FD9058440F551F07
:1002800059F05F3F71F04795880F97FB991F61F018
:100290009F3F79F087950895121613061406551F8F
:1002A000F2CF4695F1DF08C0161617061806991FFB
:1002B000F1CF86957105610508940895E894BB27F0
:1002C00066277727CB0197F908950E9478010C944F
:1002D000E9010E94DB0138F00E94E20120F0952341
:1002E00011F00C94D2010C94D80111240C945F01EC
:1002F0000E943C0170F3959FC1F3950F50E0551F8C
:10030000629FF001729FBB27F00DB11D639FAA276A
:10031000F00DB11DAA1F649F6627B00DA11D661FB9
:10032000829F2227B00DA11D621F739FB00DA11DDA
:10033000621F839FA00D611D221F749F3327A00D94
:10034000611D231F849F600D211D822F762F6A2F30
:1003500011249F5750409AF0F1F088234AF0EE0F95
:10036000FF1FBB1F661F771F881F91505040A9F7C2
:100370009E3F510580F00C94D2010C945F015F3FC9
:10038000E4F3983ED4F3869577956795B795F795FE
:10039000E7959F5FC1F7FE2B880F911D9695879576
:1003A00097F9089597F99F6780E870E060E00895F5
:1003B0009FEF80EC089500240A941616170618067D
:1003C0000906089500240A94121613061406050659
:1003D0000895092E0394000C11F4882352F0BB0FEA
:1003E00040F4BF2B11F460FF04C06F5F7F4F8F4F4D
:1003F0009F4F0895A1E21A2EAA1BBB1BFD010DC041
:10040000AA1FBB1FEE1FFF1FA217B307E407F507C4
:1004100020F0A21BB30BE40BF50B661F771F881FA0
:10042000991F1A9469F760957095809590959B0136
:0C043000AC01BD01CF010895F894FFCF8E
:00000001FF
